{
  "contractName": "Certificate",
  "abi": [
    {
      "anonymous": false,
      "inputs": [
        {
          "indexed": false,
          "internalType": "string",
          "name": "ipHash",
          "type": "string"
        },
        {
          "indexed": false,
          "internalType": "address",
          "name": "owner",
          "type": "address"
        },
        {
          "indexed": false,
          "internalType": "uint256",
          "name": "timestamp",
          "type": "uint256"
        }
      ],
      "name": "CertificateRegistered",
      "type": "event"
    },
    {
      "inputs": [
        {
          "internalType": "string",
          "name": "",
          "type": "string"
        }
      ],
      "name": "certificates",
      "outputs": [
        {
          "internalType": "string",
          "name": "ipHash",
          "type": "string"
        },
        {
          "internalType": "address",
          "name": "owner",
          "type": "address"
        },
        {
          "internalType": "uint256",
          "name": "timestamp",
          "type": "uint256"
        }
      ],
      "stateMutability": "view",
      "type": "function",
      "constant": true
    },
    {
      "inputs": [
        {
          "internalType": "string",
          "name": "ipHash",
          "type": "string"
        }
      ],
      "name": "registerCertificate",
      "outputs": [],
      "stateMutability": "nonpayable",
      "type": "function"
    },
    {
      "inputs": [
        {
          "internalType": "string",
          "name": "ipHash",
          "type": "string"
        }
      ],
      "name": "getCertificate",
      "outputs": [
        {
          "internalType": "string",
          "name": "",
          "type": "string"
        },
        {
          "internalType": "address",
          "name": "",
          "type": "address"
        },
        {
          "internalType": "uint256",
          "name": "",
          "type": "uint256"
        }
      ],
      "stateMutability": "view",
      "type": "function",
      "constant": true
    }
  ],
  "bytecode": "0x608060405234801561001057600080fd5b506109f3806100206000396000f3fe608060405234801561001057600080fd5b50600436106100415760003560e01c806351eeb551146100465780638f2b91ea14610062578063ed0f2e7514610094575b600080fd5b610060600480360381019061005b91906105de565b6100c6565b005b61007c600480360381019061007791906105de565b610233565b60405161008b9392919061070c565b60405180910390f35b6100ae60048036038101906100a991906105de565b61031b565b6040516100bd9392919061070c565b60405180910390f35b600080826040516100d791906106f5565b908152602001604051809103902060000180546100f390610885565b905014610135576040517f08c379a000000000000000000000000000000000000000000000000000000000815260040161012c9061074a565b60405180910390fd5b60405180606001604052808281526020013373ffffffffffffffffffffffffffffffffffffffff1681526020014281525060008260405161017691906106f5565b908152602001604051809103902060008201518160000190805190602001906101a09291906104cb565b5060208201518160010160006101000a81548173ffffffffffffffffffffffffffffffffffffffff021916908373ffffffffffffffffffffffffffffffffffffffff160217905550604082015181600201559050507f2c3b79c6c7dd5508d583421a96c667d9c5c4b945572159f1f745aa99854863848133426040516102289392919061070c565b60405180910390a150565b60008180516020810182018051848252602083016020850120818352809550505050505060009150905080600001805461026c90610885565b80601f016020809104026020016040519081016040528092919081815260200182805461029890610885565b80156102e55780601f106102ba576101008083540402835291602001916102e5565b820191906000526020600020905b8154815290600101906020018083116102c857829003601f168201915b5050505050908060010160009054906101000a900473ffffffffffffffffffffffffffffffffffffffff16908060020154905083565b60606000806000808560405161033191906106f5565b9081526020016040518091039020600001805461034d90610885565b90501415610390576040517f08c379a00000000000000000000000000000000000000000000000000000000081526004016103879061076a565b60405180910390fd5b600080856040516103a191906106f5565b90815260200160405180910390206040518060600160405290816000820180546103ca90610885565b80601f01602080910402602001604051908101604052809291908181526020018280546103f690610885565b80156104435780601f1061041857610100808354040283529160200191610443565b820191906000526020600020905b81548152906001019060200180831161042657829003601f168201915b505050505081526020016001820160009054906101000a900473ffffffffffffffffffffffffffffffffffffffff1673ffffffffffffffffffffffffffffffffffffffff1673ffffffffffffffffffffffffffffffffffffffff1681526020016002820154815250509050806000015181602001518260400151935093509350509193909250565b8280546104d790610885565b90600052602060002090601f0160209004810192826104f95760008555610540565b82601f1061051257805160ff1916838001178555610540565b82800160010185558215610540579182015b8281111561053f578251825591602001919060010190610524565b5b50905061054d9190610551565b5090565b5b8082111561056a576000816000905550600101610552565b5090565b600061058161057c846107af565b61078a565b90508281526020810184848401111561059d5761059c61094b565b5b6105a8848285610843565b509392505050565b600082601f8301126105c5576105c4610946565b5b81356105d584826020860161056e565b91505092915050565b6000602082840312156105f4576105f3610955565b5b600082013567ffffffffffffffff81111561061257610611610950565b5b61061e848285016105b0565b91505092915050565b61063081610807565b82525050565b6000610641826107e0565b61064b81856107eb565b935061065b818560208601610852565b6106648161095a565b840191505092915050565b600061067a826107e0565b61068481856107fc565b9350610694818560208601610852565b80840191505092915050565b60006106ad601b836107eb565b91506106b88261096b565b602082019050919050565b60006106d0601b836107eb565b91506106db82610994565b602082019050919050565b6106ef81610839565b82525050565b6000610701828461066f565b915081905092915050565b600060608201905081810360008301526107268186610636565b90506107356020830185610627565b61074260408301846106e6565b949350505050565b60006020820190508181036000830152610763816106a0565b9050919050565b60006020820190508181036000830152610783816106c3565b9050919050565b60006107946107a5565b90506107a082826108b7565b919050565b6000604051905090565b600067ffffffffffffffff8211156107ca576107c9610917565b5b6107d38261095a565b9050602081019050919050565b600081519050919050565b600082825260208201905092915050565b600081905092915050565b600061081282610819565b9050919050565b600073ffffffffffffffffffffffffffffffffffffffff82169050919050565b6000819050919050565b82818337600083830152505050565b60005b83811015610870578082015181840152602081019050610855565b8381111561087f576000848401525b50505050565b6000600282049050600182168061089d57607f821691505b602082108114156108b1576108b06108e8565b5b50919050565b6108c08261095a565b810181811067ffffffffffffffff821117156108df576108de610917565b5b80604052505050565b7f4e487b7100000000000000000000000000000000000000000000000000000000600052602260045260246000fd5b7f4e487b7100000000000000000000000000000000000000000000000000000000600052604160045260246000fd5b600080fd5b600080fd5b600080fd5b600080fd5b6000601f19601f8301169050919050565b7f436572746966696361746520616c7265616479206578697374732e0000000000600082015250565b7f436572746966696361746520646f6573206e6f742065786973742e000000000060008201525056fea264697066735822122046dfd0a85b8cbf192ed3d3832e51aee6c8cbbd88a42c2eb7219898081a63cca664736f6c63430008060033",
  "immutableReferences": {},
  "source": "// SPDX-License-Identifier: MIT\r\npragma solidity ^0.8.0;\r\n\r\ncontract Certificate {\r\n    struct Cert {\r\n        string ipHash;\r\n        address owner;\r\n        uint256 timestamp;\r\n    }\r\n\r\n    mapping(string => Cert) public certificates;\r\n\r\n    event CertificateRegistered(string ipHash, address owner, uint256 timestamp);\r\n\r\n    function registerCertificate(string memory ipHash) public {\r\n        require(bytes(certificates[ipHash].ipHash).length == 0, \"Certificate already exists.\");\r\n\r\n        certificates[ipHash] = Cert(ipHash, msg.sender, block.timestamp);\r\n\r\n        emit CertificateRegistered(ipHash, msg.sender, block.timestamp);\r\n    }\r\n\r\n    function getCertificate(string memory ipHash) public view returns (string memory, address, uint256) {\r\n        require(bytes(certificates[ipHash].ipHash).length != 0, \"Certificate does not exist.\");\r\n\r\n        Cert memory cert = certificates[ipHash];\r\n\r\n        return (cert.ipHash, cert.owner, cert.timestamp);\r\n    }\r\n}\r\n",
  "sourcePath": "E:\\decentralized-ip-management\\blockchain\\contracts\\Certificate.sol",
  "compiler": {
    "name": "solc",
    "version": "0.8.6+commit.11564f7e.Emscripten.clang"
  },
  "schemaVersion": "3.4.16",
  "updatedAt": "2024-08-01T14:12:13.352Z",
  "networkType": "ethereum",
  "devdoc": {
    "kind": "dev",
    "methods": {},
    "version": 1
  },
  "userdoc": {
    "kind": "user",
    "methods": {},
    "version": 1
  }
}