{
  "contractName": "Certificate",
  "abi": [
    {
      "anonymous": false,
      "inputs": [
        {
          "indexed": false,
          "internalType": "string",
          "name": "ipHash",
          "type": "string"
        },
        {
          "indexed": false,
          "internalType": "address",
          "name": "owner",
          "type": "address"
        }
      ],
      "name": "CertificateRegistered",
      "type": "event"
    },
    {
      "inputs": [
        {
          "internalType": "string",
          "name": "",
          "type": "string"
        }
      ],
      "name": "certificates",
      "outputs": [
        {
          "internalType": "string",
          "name": "ipHash",
          "type": "string"
        },
        {
          "internalType": "address",
          "name": "owner",
          "type": "address"
        },
        {
          "internalType": "uint256",
          "name": "timestamp",
          "type": "uint256"
        }
      ],
      "stateMutability": "view",
      "type": "function",
      "constant": true
    },
    {
      "inputs": [
        {
          "internalType": "string",
          "name": "_ipHash",
          "type": "string"
        }
      ],
      "name": "registerCertificate",
      "outputs": [],
      "stateMutability": "nonpayable",
      "type": "function"
    },
    {
      "inputs": [
        {
          "internalType": "string",
          "name": "_ipHash",
          "type": "string"
        }
      ],
      "name": "getCertificate",
      "outputs": [
        {
          "internalType": "string",
          "name": "",
          "type": "string"
        },
        {
          "internalType": "address",
          "name": "",
          "type": "address"
        },
        {
          "internalType": "uint256",
          "name": "",
          "type": "uint256"
        }
      ],
      "stateMutability": "view",
      "type": "function",
      "constant": true
    }
  ],
  "bytecode": "0x608060405234801561001057600080fd5b50610986806100206000396000f3fe608060405234801561001057600080fd5b50600436106100415760003560e01c806351eeb551146100465780638f2b91ea14610062578063ed0f2e7514610094575b600080fd5b610060600480360381019061005b91906105ad565b6100c6565b005b61007c600480360381019061007791906105ad565b610272565b60405161008b939291906106e8565b60405180910390f35b6100ae60048036038101906100a991906105ad565b61035a565b6040516100bd939291906106e8565b60405180910390f35b600073ffffffffffffffffffffffffffffffffffffffff166000826040516100ee91906106a1565b908152602001604051809103902060010160009054906101000a900473ffffffffffffffffffffffffffffffffffffffff1673ffffffffffffffffffffffffffffffffffffffff1614610176576040517f08c379a000000000000000000000000000000000000000000000000000000000815260040161016d90610726565b60405180910390fd5b60405180606001604052808281526020013373ffffffffffffffffffffffffffffffffffffffff168152602001428152506000826040516101b791906106a1565b908152602001604051809103902060008201518160000190805190602001906101e192919061049a565b5060208201518160010160006101000a81548173ffffffffffffffffffffffffffffffffffffffff021916908373ffffffffffffffffffffffffffffffffffffffff160217905550604082015181600201559050507f05a5903ebd88b51d8dd781def20a2cf0e0ed38d28be4471768d1dfe2e96a531181336040516102679291906106b8565b60405180910390a150565b6000818051602081018201805184825260208301602085012081835280955050505050506000915090508060000180546102ab90610841565b80601f01602080910402602001604051908101604052809291908181526020018280546102d790610841565b80156103245780601f106102f957610100808354040283529160200191610324565b820191906000526020600020905b81548152906001019060200180831161030757829003601f168201915b5050505050908060010160009054906101000a900473ffffffffffffffffffffffffffffffffffffffff16908060020154905083565b60606000806000808560405161037091906106a1565b908152602001604051809103902060405180606001604052908160008201805461039990610841565b80601f01602080910402602001604051908101604052809291908181526020018280546103c590610841565b80156104125780601f106103e757610100808354040283529160200191610412565b820191906000526020600020905b8154815290600101906020018083116103f557829003601f168201915b505050505081526020016001820160009054906101000a900473ffffffffffffffffffffffffffffffffffffffff1673ffffffffffffffffffffffffffffffffffffffff1673ffffffffffffffffffffffffffffffffffffffff1681526020016002820154815250509050806000015181602001518260400151935093509350509193909250565b8280546104a690610841565b90600052602060002090601f0160209004810192826104c8576000855561050f565b82601f106104e157805160ff191683800117855561050f565b8280016001018555821561050f579182015b8281111561050e5782518255916020019190600101906104f3565b5b50905061051c9190610520565b5090565b5b80821115610539576000816000905550600101610521565b5090565b600061055061054b8461076b565b610746565b90508281526020810184848401111561056c5761056b610907565b5b6105778482856107ff565b509392505050565b600082601f83011261059457610593610902565b5b81356105a484826020860161053d565b91505092915050565b6000602082840312156105c3576105c2610911565b5b600082013567ffffffffffffffff8111156105e1576105e061090c565b5b6105ed8482850161057f565b91505092915050565b6105ff816107c3565b82525050565b60006106108261079c565b61061a81856107a7565b935061062a81856020860161080e565b61063381610916565b840191505092915050565b60006106498261079c565b61065381856107b8565b935061066381856020860161080e565b80840191505092915050565b600061067c601e836107a7565b915061068782610927565b602082019050919050565b61069b816107f5565b82525050565b60006106ad828461063e565b915081905092915050565b600060408201905081810360008301526106d28185610605565b90506106e160208301846105f6565b9392505050565b600060608201905081810360008301526107028186610605565b905061071160208301856105f6565b61071e6040830184610692565b949350505050565b6000602082019050818103600083015261073f8161066f565b9050919050565b6000610750610761565b905061075c8282610873565b919050565b6000604051905090565b600067ffffffffffffffff821115610786576107856108d3565b5b61078f82610916565b9050602081019050919050565b600081519050919050565b600082825260208201905092915050565b600081905092915050565b60006107ce826107d5565b9050919050565b600073ffffffffffffffffffffffffffffffffffffffff82169050919050565b6000819050919050565b82818337600083830152505050565b60005b8381101561082c578082015181840152602081019050610811565b8381111561083b576000848401525b50505050565b6000600282049050600182168061085957607f821691505b6020821081141561086d5761086c6108a4565b5b50919050565b61087c82610916565b810181811067ffffffffffffffff8211171561089b5761089a6108d3565b5b80604052505050565b7f4e487b7100000000000000000000000000000000000000000000000000000000600052602260045260246000fd5b7f4e487b7100000000000000000000000000000000000000000000000000000000600052604160045260246000fd5b600080fd5b600080fd5b600080fd5b600080fd5b6000601f19601f8301169050919050565b7f436572746966696361746520616c72656164792072656769737465726564000060008201525056fea2646970667358221220c0475851fb9174c866b4190bdeb7f5a2c6e1a738b9d3e1aad032ad3865dd303064736f6c63430008060033",
  "immutableReferences": {},
  "source": "pragma solidity ^0.8.0;\r\n\r\ncontract Certificate {\r\n    struct CertificateDetails {\r\n        string ipHash;\r\n        address owner;\r\n        uint timestamp;\r\n    }\r\n\r\n    mapping(string => CertificateDetails) public certificates;\r\n\r\n    event CertificateRegistered(string ipHash, address owner);\r\n\r\n    function registerCertificate(string memory _ipHash) public {\r\n        require(certificates[_ipHash].owner == address(0), \"Certificate already registered\");\r\n\r\n        certificates[_ipHash] = CertificateDetails({\r\n            ipHash: _ipHash,\r\n            owner: msg.sender,\r\n            timestamp: block.timestamp\r\n        });\r\n\r\n        emit CertificateRegistered(_ipHash, msg.sender);\r\n    }\r\n\r\n    function getCertificate(string memory _ipHash) public view returns (string memory, address, uint) {\r\n        CertificateDetails memory cert = certificates[_ipHash];\r\n        return (cert.ipHash, cert.owner, cert.timestamp);\r\n    }\r\n}",
  "sourcePath": "E:\\decentralized-ip-management\\blockchain\\contracts\\Certificate.sol",
  "compiler": {
    "name": "solc",
    "version": "0.8.6+commit.11564f7e.Emscripten.clang"
  },
  "schemaVersion": "3.4.16",
  "updatedAt": "2024-08-02T10:58:13.305Z",
  "networkType": "ethereum",
  "devdoc": {
    "kind": "dev",
    "methods": {},
    "version": 1
  },
  "userdoc": {
    "kind": "user",
    "methods": {},
    "version": 1
  }
}